{
  "_format": "hh-sol-artifact-1",
  "contractName": "TaskContract",
  "sourceName": "contracts/TaskContract.sol",
  "abi": [
    {
      "anonymous": false,
      "inputs": [
        {
          "indexed": false,
          "internalType": "address",
          "name": "recepient",
          "type": "address"
        },
        {
          "indexed": false,
          "internalType": "uint256",
          "name": "taskId",
          "type": "uint256"
        }
      ],
      "name": "AddTask",
      "type": "event"
    },
    {
      "anonymous": false,
      "inputs": [
        {
          "indexed": false,
          "internalType": "uint256",
          "name": "taskId",
          "type": "uint256"
        },
        {
          "indexed": false,
          "internalType": "bool",
          "name": "isDeleted",
          "type": "bool"
        }
      ],
      "name": "DeleteTask",
      "type": "event"
    },
    {
      "inputs": [
        {
          "internalType": "string",
          "name": "taskText",
          "type": "string"
        },
        {
          "internalType": "bool",
          "name": "isDeleted",
          "type": "bool"
        }
      ],
      "name": "addTask",
      "outputs": [],
      "stateMutability": "nonpayable",
      "type": "function"
    },
    {
      "inputs": [
        {
          "internalType": "uint256",
          "name": "taskId",
          "type": "uint256"
        }
      ],
      "name": "deleteTask",
      "outputs": [],
      "stateMutability": "nonpayable",
      "type": "function"
    },
    {
      "inputs": [],
      "name": "getMyTask",
      "outputs": [
        {
          "components": [
            {
              "internalType": "uint256",
              "name": "id",
              "type": "uint256"
            },
            {
              "internalType": "string",
              "name": "taskText",
              "type": "string"
            },
            {
              "internalType": "bool",
              "name": "isDeleted",
              "type": "bool"
            }
          ],
          "internalType": "struct TaskContract.Task[]",
          "name": "",
          "type": "tuple[]"
        }
      ],
      "stateMutability": "view",
      "type": "function"
    }
  ],
  "bytecode": "0x6080604052348015600f57600080fd5b50610e3b8061001f6000396000f3fe608060405234801561001057600080fd5b50600436106100415760003560e01c806320df458114610046578063560f319214610062578063e08e86b81461007e575b600080fd5b610060600480360381019061005b9190610740565b61009c565b005b61007c600480360381019061007791906107d2565b6101bf565b005b6100866102a1565b60405161009391906109ae565b60405180910390f35b60008080549050905060006040518060600160405280838152602001858152602001841515815250908060018154018082558091505060019003906000526020600020906003020160009091909190915060008201518160000155602082015181600101908161010c9190610bdc565b5060408201518160020160006101000a81548160ff0219169083151502179055505050336001600083815260200190815260200160002060006101000a81548173ffffffffffffffffffffffffffffffffffffffff021916908373ffffffffffffffffffffffffffffffffffffffff1602179055507f1f54e1ba1832d428fbd7e7792beaf62b1fc5a382c207ffd614209c1413e94fda33826040516101b2929190610cfe565b60405180910390a1505050565b3373ffffffffffffffffffffffffffffffffffffffff166001600083815260200190815260200160002060009054906101000a900473ffffffffffffffffffffffffffffffffffffffff1673ffffffffffffffffffffffffffffffffffffffff160361029e5760016000828154811061023b5761023a610d27565b5b906000526020600020906003020160020160006101000a81548160ff0219169083151502179055507ff88a35c3d2016c409a46570b994a17b408dbc83c14a03f521512d50b85386d06816001604051610295929190610d65565b60405180910390a15b50565b60606000808054905067ffffffffffffffff8111156102c3576102c26105dd565b5b6040519080825280602002602001820160405280156102fc57816020015b6102e961058b565b8152602001906001900390816102e15790505b5090506000805b6000805490508110156104d7573373ffffffffffffffffffffffffffffffffffffffff166001600083815260200190815260200160002060009054906101000a900473ffffffffffffffffffffffffffffffffffffffff1673ffffffffffffffffffffffffffffffffffffffff161480156103b45750600015156000828154811061039157610390610d27565b5b906000526020600020906003020160020160009054906101000a900460ff161515145b156104ca57600081815481106103cd576103cc610d27565b5b906000526020600020906003020160405180606001604052908160008201548152602001600182018054610400906109ff565b80601f016020809104026020016040519081016040528092919081815260200182805461042c906109ff565b80156104795780601f1061044e57610100808354040283529160200191610479565b820191906000526020600020905b81548152906001019060200180831161045c57829003601f168201915b505050505081526020016002820160009054906101000a900460ff1615151515815250508383815181106104b0576104af610d27565b5b602002602001018190525081806104c690610dbd565b9250505b8080600101915050610303565b5060008167ffffffffffffffff8111156104f4576104f36105dd565b5b60405190808252806020026020018201604052801561052d57816020015b61051a61058b565b8152602001906001900390816105125790505b50905060005b828110156105815783818151811061054e5761054d610d27565b5b602002602001015182828151811061056957610568610d27565b5b60200260200101819052508080600101915050610533565b5080935050505090565b604051806060016040528060008152602001606081526020016000151581525090565b6000604051905090565b600080fd5b600080fd5b600080fd5b600080fd5b6000601f19601f8301169050919050565b7f4e487b7100000000000000000000000000000000000000000000000000000000600052604160045260246000fd5b610615826105cc565b810181811067ffffffffffffffff82111715610634576106336105dd565b5b80604052505050565b60006106476105ae565b9050610653828261060c565b919050565b600067ffffffffffffffff821115610673576106726105dd565b5b61067c826105cc565b9050602081019050919050565b82818337600083830152505050565b60006106ab6106a684610658565b61063d565b9050828152602081018484840111156106c7576106c66105c7565b5b6106d2848285610689565b509392505050565b600082601f8301126106ef576106ee6105c2565b5b81356106ff848260208601610698565b91505092915050565b60008115159050919050565b61071d81610708565b811461072857600080fd5b50565b60008135905061073a81610714565b92915050565b60008060408385031215610757576107566105b8565b5b600083013567ffffffffffffffff811115610775576107746105bd565b5b610781858286016106da565b92505060206107928582860161072b565b9150509250929050565b6000819050919050565b6107af8161079c565b81146107ba57600080fd5b50565b6000813590506107cc816107a6565b92915050565b6000602082840312156107e8576107e76105b8565b5b60006107f6848285016107bd565b91505092915050565b600081519050919050565b600082825260208201905092915050565b6000819050602082019050919050565b6108348161079c565b82525050565b600081519050919050565b600082825260208201905092915050565b60005b83811015610874578082015181840152602081019050610859565b60008484015250505050565b600061088b8261083a565b6108958185610845565b93506108a5818560208601610856565b6108ae816105cc565b840191505092915050565b6108c281610708565b82525050565b60006060830160008301516108e0600086018261082b565b50602083015184820360208601526108f88282610880565b915050604083015161090d60408601826108b9565b508091505092915050565b600061092483836108c8565b905092915050565b6000602082019050919050565b6000610944826107ff565b61094e818561080a565b9350836020820285016109608561081b565b8060005b8581101561099c578484038952815161097d8582610918565b94506109888361092c565b925060208a01995050600181019050610964565b50829750879550505050505092915050565b600060208201905081810360008301526109c88184610939565b905092915050565b7f4e487b7100000000000000000000000000000000000000000000000000000000600052602260045260246000fd5b60006002820490506001821680610a1757607f821691505b602082108103610a2a57610a296109d0565b5b50919050565b60008190508160005260206000209050919050565b60006020601f8301049050919050565b600082821b905092915050565b600060088302610a927fffffffffffffffffffffffffffffffffffffffffffffffffffffffffffffffff82610a55565b610a9c8683610a55565b95508019841693508086168417925050509392505050565b6000819050919050565b6000610ad9610ad4610acf8461079c565b610ab4565b61079c565b9050919050565b6000819050919050565b610af383610abe565b610b07610aff82610ae0565b848454610a62565b825550505050565b600090565b610b1c610b0f565b610b27818484610aea565b505050565b5b81811015610b4b57610b40600082610b14565b600181019050610b2d565b5050565b601f821115610b9057610b6181610a30565b610b6a84610a45565b81016020851015610b79578190505b610b8d610b8585610a45565b830182610b2c565b50505b505050565b600082821c905092915050565b6000610bb360001984600802610b95565b1980831691505092915050565b6000610bcc8383610ba2565b9150826002028217905092915050565b610be58261083a565b67ffffffffffffffff811115610bfe57610bfd6105dd565b5b610c0882546109ff565b610c13828285610b4f565b600060209050601f831160018114610c465760008415610c34578287015190505b610c3e8582610bc0565b865550610ca6565b601f198416610c5486610a30565b60005b82811015610c7c57848901518255600182019150602085019450602081019050610c57565b86831015610c995784890151610c95601f891682610ba2565b8355505b6001600288020188555050505b505050505050565b600073ffffffffffffffffffffffffffffffffffffffff82169050919050565b6000610cd982610cae565b9050919050565b610ce981610cce565b82525050565b610cf88161079c565b82525050565b6000604082019050610d136000830185610ce0565b610d206020830184610cef565b9392505050565b7f4e487b7100000000000000000000000000000000000000000000000000000000600052603260045260246000fd5b610d5f81610708565b82525050565b6000604082019050610d7a6000830185610cef565b610d876020830184610d56565b9392505050565b7f4e487b7100000000000000000000000000000000000000000000000000000000600052601160045260246000fd5b6000610dc88261079c565b91507fffffffffffffffffffffffffffffffffffffffffffffffffffffffffffffffff8203610dfa57610df9610d8e565b5b60018201905091905056fea26469706673582212204410f6134f2ca5bb1da6c00f1511198df01ab8fe1562a10b6e63d20ab0f26d4664736f6c634300081c0033",
  "linkReferences": {},
  "deployedLinkReferences": {}
}