{
  "contracts/TaskContract.sol": {
    "TaskContract": {
      "abi": [
        {
          "anonymous": false,
          "inputs": [
            {
              "indexed": false,
              "internalType": "address",
              "name": "recepient",
              "type": "address"
            },
            {
              "indexed": false,
              "internalType": "uint256",
              "name": "taskId",
              "type": "uint256"
            }
          ],
          "name": "AddTask",
          "type": "event"
        },
        {
          "anonymous": false,
          "inputs": [
            {
              "indexed": false,
              "internalType": "uint256",
              "name": "taskId",
              "type": "uint256"
            },
            {
              "indexed": false,
              "internalType": "bool",
              "name": "isDeleted",
              "type": "bool"
            }
          ],
          "name": "DeleteTask",
          "type": "event"
        },
        {
          "inputs": [
            {
              "internalType": "string",
              "name": "taskText",
              "type": "string"
            },
            {
              "internalType": "bool",
              "name": "isDeleted",
              "type": "bool"
            }
          ],
          "name": "addTask",
          "outputs": [],
          "stateMutability": "nonpayable",
          "type": "function"
        },
        {
          "inputs": [
            {
              "internalType": "uint256",
              "name": "taskId",
              "type": "uint256"
            }
          ],
          "name": "deleteTask",
          "outputs": [],
          "stateMutability": "nonpayable",
          "type": "function"
        },
        {
          "inputs": [],
          "name": "getMyTask",
          "outputs": [
            {
              "components": [
                {
                  "internalType": "uint256",
                  "name": "id",
                  "type": "uint256"
                },
                {
                  "internalType": "string",
                  "name": "taskText",
                  "type": "string"
                },
                {
                  "internalType": "bool",
                  "name": "isDeleted",
                  "type": "bool"
                }
              ],
              "internalType": "struct TaskContract.Task[]",
              "name": "",
              "type": "tuple[]"
            }
          ],
          "stateMutability": "view",
          "type": "function"
        }
      ],
      "evm": {
        "bytecode": {
          "linkReferences": {},
          "object": "6080604052348015600f57600080fd5b50610e3b8061001f6000396000f3fe608060405234801561001057600080fd5b50600436106100415760003560e01c806320df458114610046578063560f319214610062578063e08e86b81461007e575b600080fd5b610060600480360381019061005b9190610740565b61009c565b005b61007c600480360381019061007791906107d2565b6101bf565b005b6100866102a1565b60405161009391906109ae565b60405180910390f35b60008080549050905060006040518060600160405280838152602001858152602001841515815250908060018154018082558091505060019003906000526020600020906003020160009091909190915060008201518160000155602082015181600101908161010c9190610bdc565b5060408201518160020160006101000a81548160ff0219169083151502179055505050336001600083815260200190815260200160002060006101000a81548173ffffffffffffffffffffffffffffffffffffffff021916908373ffffffffffffffffffffffffffffffffffffffff1602179055507f1f54e1ba1832d428fbd7e7792beaf62b1fc5a382c207ffd614209c1413e94fda33826040516101b2929190610cfe565b60405180910390a1505050565b3373ffffffffffffffffffffffffffffffffffffffff166001600083815260200190815260200160002060009054906101000a900473ffffffffffffffffffffffffffffffffffffffff1673ffffffffffffffffffffffffffffffffffffffff160361029e5760016000828154811061023b5761023a610d27565b5b906000526020600020906003020160020160006101000a81548160ff0219169083151502179055507ff88a35c3d2016c409a46570b994a17b408dbc83c14a03f521512d50b85386d06816001604051610295929190610d65565b60405180910390a15b50565b60606000808054905067ffffffffffffffff8111156102c3576102c26105dd565b5b6040519080825280602002602001820160405280156102fc57816020015b6102e961058b565b8152602001906001900390816102e15790505b5090506000805b6000805490508110156104d7573373ffffffffffffffffffffffffffffffffffffffff166001600083815260200190815260200160002060009054906101000a900473ffffffffffffffffffffffffffffffffffffffff1673ffffffffffffffffffffffffffffffffffffffff161480156103b45750600015156000828154811061039157610390610d27565b5b906000526020600020906003020160020160009054906101000a900460ff161515145b156104ca57600081815481106103cd576103cc610d27565b5b906000526020600020906003020160405180606001604052908160008201548152602001600182018054610400906109ff565b80601f016020809104026020016040519081016040528092919081815260200182805461042c906109ff565b80156104795780601f1061044e57610100808354040283529160200191610479565b820191906000526020600020905b81548152906001019060200180831161045c57829003601f168201915b505050505081526020016002820160009054906101000a900460ff1615151515815250508383815181106104b0576104af610d27565b5b602002602001018190525081806104c690610dbd565b9250505b8080600101915050610303565b5060008167ffffffffffffffff8111156104f4576104f36105dd565b5b60405190808252806020026020018201604052801561052d57816020015b61051a61058b565b8152602001906001900390816105125790505b50905060005b828110156105815783818151811061054e5761054d610d27565b5b602002602001015182828151811061056957610568610d27565b5b60200260200101819052508080600101915050610533565b5080935050505090565b604051806060016040528060008152602001606081526020016000151581525090565b6000604051905090565b600080fd5b600080fd5b600080fd5b600080fd5b6000601f19601f8301169050919050565b7f4e487b7100000000000000000000000000000000000000000000000000000000600052604160045260246000fd5b610615826105cc565b810181811067ffffffffffffffff82111715610634576106336105dd565b5b80604052505050565b60006106476105ae565b9050610653828261060c565b919050565b600067ffffffffffffffff821115610673576106726105dd565b5b61067c826105cc565b9050602081019050919050565b82818337600083830152505050565b60006106ab6106a684610658565b61063d565b9050828152602081018484840111156106c7576106c66105c7565b5b6106d2848285610689565b509392505050565b600082601f8301126106ef576106ee6105c2565b5b81356106ff848260208601610698565b91505092915050565b60008115159050919050565b61071d81610708565b811461072857600080fd5b50565b60008135905061073a81610714565b92915050565b60008060408385031215610757576107566105b8565b5b600083013567ffffffffffffffff811115610775576107746105bd565b5b610781858286016106da565b92505060206107928582860161072b565b9150509250929050565b6000819050919050565b6107af8161079c565b81146107ba57600080fd5b50565b6000813590506107cc816107a6565b92915050565b6000602082840312156107e8576107e76105b8565b5b60006107f6848285016107bd565b91505092915050565b600081519050919050565b600082825260208201905092915050565b6000819050602082019050919050565b6108348161079c565b82525050565b600081519050919050565b600082825260208201905092915050565b60005b83811015610874578082015181840152602081019050610859565b60008484015250505050565b600061088b8261083a565b6108958185610845565b93506108a5818560208601610856565b6108ae816105cc565b840191505092915050565b6108c281610708565b82525050565b60006060830160008301516108e0600086018261082b565b50602083015184820360208601526108f88282610880565b915050604083015161090d60408601826108b9565b508091505092915050565b600061092483836108c8565b905092915050565b6000602082019050919050565b6000610944826107ff565b61094e818561080a565b9350836020820285016109608561081b565b8060005b8581101561099c578484038952815161097d8582610918565b94506109888361092c565b925060208a01995050600181019050610964565b50829750879550505050505092915050565b600060208201905081810360008301526109c88184610939565b905092915050565b7f4e487b7100000000000000000000000000000000000000000000000000000000600052602260045260246000fd5b60006002820490506001821680610a1757607f821691505b602082108103610a2a57610a296109d0565b5b50919050565b60008190508160005260206000209050919050565b60006020601f8301049050919050565b600082821b905092915050565b600060088302610a927fffffffffffffffffffffffffffffffffffffffffffffffffffffffffffffffff82610a55565b610a9c8683610a55565b95508019841693508086168417925050509392505050565b6000819050919050565b6000610ad9610ad4610acf8461079c565b610ab4565b61079c565b9050919050565b6000819050919050565b610af383610abe565b610b07610aff82610ae0565b848454610a62565b825550505050565b600090565b610b1c610b0f565b610b27818484610aea565b505050565b5b81811015610b4b57610b40600082610b14565b600181019050610b2d565b5050565b601f821115610b9057610b6181610a30565b610b6a84610a45565b81016020851015610b79578190505b610b8d610b8585610a45565b830182610b2c565b50505b505050565b600082821c905092915050565b6000610bb360001984600802610b95565b1980831691505092915050565b6000610bcc8383610ba2565b9150826002028217905092915050565b610be58261083a565b67ffffffffffffffff811115610bfe57610bfd6105dd565b5b610c0882546109ff565b610c13828285610b4f565b600060209050601f831160018114610c465760008415610c34578287015190505b610c3e8582610bc0565b865550610ca6565b601f198416610c5486610a30565b60005b82811015610c7c57848901518255600182019150602085019450602081019050610c57565b86831015610c995784890151610c95601f891682610ba2565b8355505b6001600288020188555050505b505050505050565b600073ffffffffffffffffffffffffffffffffffffffff82169050919050565b6000610cd982610cae565b9050919050565b610ce981610cce565b82525050565b610cf88161079c565b82525050565b6000604082019050610d136000830185610ce0565b610d206020830184610cef565b9392505050565b7f4e487b7100000000000000000000000000000000000000000000000000000000600052603260045260246000fd5b610d5f81610708565b82525050565b6000604082019050610d7a6000830185610cef565b610d876020830184610d56565b9392505050565b7f4e487b7100000000000000000000000000000000000000000000000000000000600052601160045260246000fd5b6000610dc88261079c565b91507fffffffffffffffffffffffffffffffffffffffffffffffffffffffffffffffff8203610dfa57610df9610d8e565b5b60018201905091905056fea26469706673582212204410f6134f2ca5bb1da6c00f1511198df01ab8fe1562a10b6e63d20ab0f26d4664736f6c634300081c0033",
          "opcodes": "PUSH1 0x80 PUSH1 0x40 MSTORE CALLVALUE DUP1 ISZERO PUSH1 0xF JUMPI PUSH1 0x0 DUP1 REVERT JUMPDEST POP PUSH2 0xE3B DUP1 PUSH2 0x1F PUSH1 0x0 CODECOPY PUSH1 0x0 RETURN INVALID PUSH1 0x80 PUSH1 0x40 MSTORE CALLVALUE DUP1 ISZERO PUSH2 0x10 JUMPI PUSH1 0x0 DUP1 REVERT JUMPDEST POP PUSH1 0x4 CALLDATASIZE LT PUSH2 0x41 JUMPI PUSH1 0x0 CALLDATALOAD PUSH1 0xE0 SHR DUP1 PUSH4 0x20DF4581 EQ PUSH2 0x46 JUMPI DUP1 PUSH4 0x560F3192 EQ PUSH2 0x62 JUMPI DUP1 PUSH4 0xE08E86B8 EQ PUSH2 0x7E JUMPI JUMPDEST PUSH1 0x0 DUP1 REVERT JUMPDEST PUSH2 0x60 PUSH1 0x4 DUP1 CALLDATASIZE SUB DUP2 ADD SWAP1 PUSH2 0x5B SWAP2 SWAP1 PUSH2 0x740 JUMP JUMPDEST PUSH2 0x9C JUMP JUMPDEST STOP JUMPDEST PUSH2 0x7C PUSH1 0x4 DUP1 CALLDATASIZE SUB DUP2 ADD SWAP1 PUSH2 0x77 SWAP2 SWAP1 PUSH2 0x7D2 JUMP JUMPDEST PUSH2 0x1BF JUMP JUMPDEST STOP JUMPDEST PUSH2 0x86 PUSH2 0x2A1 JUMP JUMPDEST PUSH1 0x40 MLOAD PUSH2 0x93 SWAP2 SWAP1 PUSH2 0x9AE JUMP JUMPDEST PUSH1 0x40 MLOAD DUP1 SWAP2 SUB SWAP1 RETURN JUMPDEST PUSH1 0x0 DUP1 DUP1 SLOAD SWAP1 POP SWAP1 POP PUSH1 0x0 PUSH1 0x40 MLOAD DUP1 PUSH1 0x60 ADD PUSH1 0x40 MSTORE DUP1 DUP4 DUP2 MSTORE PUSH1 0x20 ADD DUP6 DUP2 MSTORE PUSH1 0x20 ADD DUP5 ISZERO ISZERO DUP2 MSTORE POP SWAP1 DUP1 PUSH1 0x1 DUP2 SLOAD ADD DUP1 DUP3 SSTORE DUP1 SWAP2 POP POP PUSH1 0x1 SWAP1 SUB SWAP1 PUSH1 0x0 MSTORE PUSH1 0x20 PUSH1 0x0 KECCAK256 SWAP1 PUSH1 0x3 MUL ADD PUSH1 0x0 SWAP1 SWAP2 SWAP1 SWAP2 SWAP1 SWAP2 POP PUSH1 0x0 DUP3 ADD MLOAD DUP2 PUSH1 0x0 ADD SSTORE PUSH1 0x20 DUP3 ADD MLOAD DUP2 PUSH1 0x1 ADD SWAP1 DUP2 PUSH2 0x10C SWAP2 SWAP1 PUSH2 0xBDC JUMP JUMPDEST POP PUSH1 0x40 DUP3 ADD MLOAD DUP2 PUSH1 0x2 ADD PUSH1 0x0 PUSH2 0x100 EXP DUP2 SLOAD DUP2 PUSH1 0xFF MUL NOT AND SWAP1 DUP4 ISZERO ISZERO MUL OR SWAP1 SSTORE POP POP POP CALLER PUSH1 0x1 PUSH1 0x0 DUP4 DUP2 MSTORE PUSH1 0x20 ADD SWAP1 DUP2 MSTORE PUSH1 0x20 ADD PUSH1 0x0 KECCAK256 PUSH1 0x0 PUSH2 0x100 EXP DUP2 SLOAD DUP2 PUSH20 0xFFFFFFFFFFFFFFFFFFFFFFFFFFFFFFFFFFFFFFFF MUL NOT AND SWAP1 DUP4 PUSH20 0xFFFFFFFFFFFFFFFFFFFFFFFFFFFFFFFFFFFFFFFF AND MUL OR SWAP1 SSTORE POP PUSH32 0x1F54E1BA1832D428FBD7E7792BEAF62B1FC5A382C207FFD614209C1413E94FDA CALLER DUP3 PUSH1 0x40 MLOAD PUSH2 0x1B2 SWAP3 SWAP2 SWAP1 PUSH2 0xCFE JUMP JUMPDEST PUSH1 0x40 MLOAD DUP1 SWAP2 SUB SWAP1 LOG1 POP POP POP JUMP JUMPDEST CALLER PUSH20 0xFFFFFFFFFFFFFFFFFFFFFFFFFFFFFFFFFFFFFFFF AND PUSH1 0x1 PUSH1 0x0 DUP4 DUP2 MSTORE PUSH1 0x20 ADD SWAP1 DUP2 MSTORE PUSH1 0x20 ADD PUSH1 0x0 KECCAK256 PUSH1 0x0 SWAP1 SLOAD SWAP1 PUSH2 0x100 EXP SWAP1 DIV PUSH20 0xFFFFFFFFFFFFFFFFFFFFFFFFFFFFFFFFFFFFFFFF AND PUSH20 0xFFFFFFFFFFFFFFFFFFFFFFFFFFFFFFFFFFFFFFFF AND SUB PUSH2 0x29E JUMPI PUSH1 0x1 PUSH1 0x0 DUP3 DUP2 SLOAD DUP2 LT PUSH2 0x23B JUMPI PUSH2 0x23A PUSH2 0xD27 JUMP JUMPDEST JUMPDEST SWAP1 PUSH1 0x0 MSTORE PUSH1 0x20 PUSH1 0x0 KECCAK256 SWAP1 PUSH1 0x3 MUL ADD PUSH1 0x2 ADD PUSH1 0x0 PUSH2 0x100 EXP DUP2 SLOAD DUP2 PUSH1 0xFF MUL NOT AND SWAP1 DUP4 ISZERO ISZERO MUL OR SWAP1 SSTORE POP PUSH32 0xF88A35C3D2016C409A46570B994A17B408DBC83C14A03F521512D50B85386D06 DUP2 PUSH1 0x1 PUSH1 0x40 MLOAD PUSH2 0x295 SWAP3 SWAP2 SWAP1 PUSH2 0xD65 JUMP JUMPDEST PUSH1 0x40 MLOAD DUP1 SWAP2 SUB SWAP1 LOG1 JUMPDEST POP JUMP JUMPDEST PUSH1 0x60 PUSH1 0x0 DUP1 DUP1 SLOAD SWAP1 POP PUSH8 0xFFFFFFFFFFFFFFFF DUP2 GT ISZERO PUSH2 0x2C3 JUMPI PUSH2 0x2C2 PUSH2 0x5DD JUMP JUMPDEST JUMPDEST PUSH1 0x40 MLOAD SWAP1 DUP1 DUP3 MSTORE DUP1 PUSH1 0x20 MUL PUSH1 0x20 ADD DUP3 ADD PUSH1 0x40 MSTORE DUP1 ISZERO PUSH2 0x2FC JUMPI DUP2 PUSH1 0x20 ADD JUMPDEST PUSH2 0x2E9 PUSH2 0x58B JUMP JUMPDEST DUP2 MSTORE PUSH1 0x20 ADD SWAP1 PUSH1 0x1 SWAP1 SUB SWAP1 DUP2 PUSH2 0x2E1 JUMPI SWAP1 POP JUMPDEST POP SWAP1 POP PUSH1 0x0 DUP1 JUMPDEST PUSH1 0x0 DUP1 SLOAD SWAP1 POP DUP2 LT ISZERO PUSH2 0x4D7 JUMPI CALLER PUSH20 0xFFFFFFFFFFFFFFFFFFFFFFFFFFFFFFFFFFFFFFFF AND PUSH1 0x1 PUSH1 0x0 DUP4 DUP2 MSTORE PUSH1 0x20 ADD SWAP1 DUP2 MSTORE PUSH1 0x20 ADD PUSH1 0x0 KECCAK256 PUSH1 0x0 SWAP1 SLOAD SWAP1 PUSH2 0x100 EXP SWAP1 DIV PUSH20 0xFFFFFFFFFFFFFFFFFFFFFFFFFFFFFFFFFFFFFFFF AND PUSH20 0xFFFFFFFFFFFFFFFFFFFFFFFFFFFFFFFFFFFFFFFF AND EQ DUP1 ISZERO PUSH2 0x3B4 JUMPI POP PUSH1 0x0 ISZERO ISZERO PUSH1 0x0 DUP3 DUP2 SLOAD DUP2 LT PUSH2 0x391 JUMPI PUSH2 0x390 PUSH2 0xD27 JUMP JUMPDEST JUMPDEST SWAP1 PUSH1 0x0 MSTORE PUSH1 0x20 PUSH1 0x0 KECCAK256 SWAP1 PUSH1 0x3 MUL ADD PUSH1 0x2 ADD PUSH1 0x0 SWAP1 SLOAD SWAP1 PUSH2 0x100 EXP SWAP1 DIV PUSH1 0xFF AND ISZERO ISZERO EQ JUMPDEST ISZERO PUSH2 0x4CA JUMPI PUSH1 0x0 DUP2 DUP2 SLOAD DUP2 LT PUSH2 0x3CD JUMPI PUSH2 0x3CC PUSH2 0xD27 JUMP JUMPDEST JUMPDEST SWAP1 PUSH1 0x0 MSTORE PUSH1 0x20 PUSH1 0x0 KECCAK256 SWAP1 PUSH1 0x3 MUL ADD PUSH1 0x40 MLOAD DUP1 PUSH1 0x60 ADD PUSH1 0x40 MSTORE SWAP1 DUP2 PUSH1 0x0 DUP3 ADD SLOAD DUP2 MSTORE PUSH1 0x20 ADD PUSH1 0x1 DUP3 ADD DUP1 SLOAD PUSH2 0x400 SWAP1 PUSH2 0x9FF JUMP JUMPDEST DUP1 PUSH1 0x1F ADD PUSH1 0x20 DUP1 SWAP2 DIV MUL PUSH1 0x20 ADD PUSH1 0x40 MLOAD SWAP1 DUP2 ADD PUSH1 0x40 MSTORE DUP1 SWAP3 SWAP2 SWAP1 DUP2 DUP2 MSTORE PUSH1 0x20 ADD DUP3 DUP1 SLOAD PUSH2 0x42C SWAP1 PUSH2 0x9FF JUMP JUMPDEST DUP1 ISZERO PUSH2 0x479 JUMPI DUP1 PUSH1 0x1F LT PUSH2 0x44E JUMPI PUSH2 0x100 DUP1 DUP4 SLOAD DIV MUL DUP4 MSTORE SWAP2 PUSH1 0x20 ADD SWAP2 PUSH2 0x479 JUMP JUMPDEST DUP3 ADD SWAP2 SWAP1 PUSH1 0x0 MSTORE PUSH1 0x20 PUSH1 0x0 KECCAK256 SWAP1 JUMPDEST DUP2 SLOAD DUP2 MSTORE SWAP1 PUSH1 0x1 ADD SWAP1 PUSH1 0x20 ADD DUP1 DUP4 GT PUSH2 0x45C JUMPI DUP3 SWAP1 SUB PUSH1 0x1F AND DUP3 ADD SWAP2 JUMPDEST POP POP POP POP POP DUP2 MSTORE PUSH1 0x20 ADD PUSH1 0x2 DUP3 ADD PUSH1 0x0 SWAP1 SLOAD SWAP1 PUSH2 0x100 EXP SWAP1 DIV PUSH1 0xFF AND ISZERO ISZERO ISZERO ISZERO DUP2 MSTORE POP POP DUP4 DUP4 DUP2 MLOAD DUP2 LT PUSH2 0x4B0 JUMPI PUSH2 0x4AF PUSH2 0xD27 JUMP JUMPDEST JUMPDEST PUSH1 0x20 MUL PUSH1 0x20 ADD ADD DUP2 SWAP1 MSTORE POP DUP2 DUP1 PUSH2 0x4C6 SWAP1 PUSH2 0xDBD JUMP JUMPDEST SWAP3 POP POP JUMPDEST DUP1 DUP1 PUSH1 0x1 ADD SWAP2 POP POP PUSH2 0x303 JUMP JUMPDEST POP PUSH1 0x0 DUP2 PUSH8 0xFFFFFFFFFFFFFFFF DUP2 GT ISZERO PUSH2 0x4F4 JUMPI PUSH2 0x4F3 PUSH2 0x5DD JUMP JUMPDEST JUMPDEST PUSH1 0x40 MLOAD SWAP1 DUP1 DUP3 MSTORE DUP1 PUSH1 0x20 MUL PUSH1 0x20 ADD DUP3 ADD PUSH1 0x40 MSTORE DUP1 ISZERO PUSH2 0x52D JUMPI DUP2 PUSH1 0x20 ADD JUMPDEST PUSH2 0x51A PUSH2 0x58B JUMP JUMPDEST DUP2 MSTORE PUSH1 0x20 ADD SWAP1 PUSH1 0x1 SWAP1 SUB SWAP1 DUP2 PUSH2 0x512 JUMPI SWAP1 POP JUMPDEST POP SWAP1 POP PUSH1 0x0 JUMPDEST DUP3 DUP2 LT ISZERO PUSH2 0x581 JUMPI DUP4 DUP2 DUP2 MLOAD DUP2 LT PUSH2 0x54E JUMPI PUSH2 0x54D PUSH2 0xD27 JUMP JUMPDEST JUMPDEST PUSH1 0x20 MUL PUSH1 0x20 ADD ADD MLOAD DUP3 DUP3 DUP2 MLOAD DUP2 LT PUSH2 0x569 JUMPI PUSH2 0x568 PUSH2 0xD27 JUMP JUMPDEST JUMPDEST PUSH1 0x20 MUL PUSH1 0x20 ADD ADD DUP2 SWAP1 MSTORE POP DUP1 DUP1 PUSH1 0x1 ADD SWAP2 POP POP PUSH2 0x533 JUMP JUMPDEST POP DUP1 SWAP4 POP POP POP POP SWAP1 JUMP JUMPDEST PUSH1 0x40 MLOAD DUP1 PUSH1 0x60 ADD PUSH1 0x40 MSTORE DUP1 PUSH1 0x0 DUP2 MSTORE PUSH1 0x20 ADD PUSH1 0x60 DUP2 MSTORE PUSH1 0x20 ADD PUSH1 0x0 ISZERO ISZERO DUP2 MSTORE POP SWAP1 JUMP JUMPDEST PUSH1 0x0 PUSH1 0x40 MLOAD SWAP1 POP SWAP1 JUMP JUMPDEST PUSH1 0x0 DUP1 REVERT JUMPDEST PUSH1 0x0 DUP1 REVERT JUMPDEST PUSH1 0x0 DUP1 REVERT JUMPDEST PUSH1 0x0 DUP1 REVERT JUMPDEST PUSH1 0x0 PUSH1 0x1F NOT PUSH1 0x1F DUP4 ADD AND SWAP1 POP SWAP2 SWAP1 POP JUMP JUMPDEST PUSH32 0x4E487B7100000000000000000000000000000000000000000000000000000000 PUSH1 0x0 MSTORE PUSH1 0x41 PUSH1 0x4 MSTORE PUSH1 0x24 PUSH1 0x0 REVERT JUMPDEST PUSH2 0x615 DUP3 PUSH2 0x5CC JUMP JUMPDEST DUP2 ADD DUP2 DUP2 LT PUSH8 0xFFFFFFFFFFFFFFFF DUP3 GT OR ISZERO PUSH2 0x634 JUMPI PUSH2 0x633 PUSH2 0x5DD JUMP JUMPDEST JUMPDEST DUP1 PUSH1 0x40 MSTORE POP POP POP JUMP JUMPDEST PUSH1 0x0 PUSH2 0x647 PUSH2 0x5AE JUMP JUMPDEST SWAP1 POP PUSH2 0x653 DUP3 DUP3 PUSH2 0x60C JUMP JUMPDEST SWAP2 SWAP1 POP JUMP JUMPDEST PUSH1 0x0 PUSH8 0xFFFFFFFFFFFFFFFF DUP3 GT ISZERO PUSH2 0x673 JUMPI PUSH2 0x672 PUSH2 0x5DD JUMP JUMPDEST JUMPDEST PUSH2 0x67C DUP3 PUSH2 0x5CC JUMP JUMPDEST SWAP1 POP PUSH1 0x20 DUP2 ADD SWAP1 POP SWAP2 SWAP1 POP JUMP JUMPDEST DUP3 DUP2 DUP4 CALLDATACOPY PUSH1 0x0 DUP4 DUP4 ADD MSTORE POP POP POP JUMP JUMPDEST PUSH1 0x0 PUSH2 0x6AB PUSH2 0x6A6 DUP5 PUSH2 0x658 JUMP JUMPDEST PUSH2 0x63D JUMP JUMPDEST SWAP1 POP DUP3 DUP2 MSTORE PUSH1 0x20 DUP2 ADD DUP5 DUP5 DUP5 ADD GT ISZERO PUSH2 0x6C7 JUMPI PUSH2 0x6C6 PUSH2 0x5C7 JUMP JUMPDEST JUMPDEST PUSH2 0x6D2 DUP5 DUP3 DUP6 PUSH2 0x689 JUMP JUMPDEST POP SWAP4 SWAP3 POP POP POP JUMP JUMPDEST PUSH1 0x0 DUP3 PUSH1 0x1F DUP4 ADD SLT PUSH2 0x6EF JUMPI PUSH2 0x6EE PUSH2 0x5C2 JUMP JUMPDEST JUMPDEST DUP2 CALLDATALOAD PUSH2 0x6FF DUP5 DUP3 PUSH1 0x20 DUP7 ADD PUSH2 0x698 JUMP JUMPDEST SWAP2 POP POP SWAP3 SWAP2 POP POP JUMP JUMPDEST PUSH1 0x0 DUP2 ISZERO ISZERO SWAP1 POP SWAP2 SWAP1 POP JUMP JUMPDEST PUSH2 0x71D DUP2 PUSH2 0x708 JUMP JUMPDEST DUP2 EQ PUSH2 0x728 JUMPI PUSH1 0x0 DUP1 REVERT JUMPDEST POP JUMP JUMPDEST PUSH1 0x0 DUP2 CALLDATALOAD SWAP1 POP PUSH2 0x73A DUP2 PUSH2 0x714 JUMP JUMPDEST SWAP3 SWAP2 POP POP JUMP JUMPDEST PUSH1 0x0 DUP1 PUSH1 0x40 DUP4 DUP6 SUB SLT ISZERO PUSH2 0x757 JUMPI PUSH2 0x756 PUSH2 0x5B8 JUMP JUMPDEST JUMPDEST PUSH1 0x0 DUP4 ADD CALLDATALOAD PUSH8 0xFFFFFFFFFFFFFFFF DUP2 GT ISZERO PUSH2 0x775 JUMPI PUSH2 0x774 PUSH2 0x5BD JUMP JUMPDEST JUMPDEST PUSH2 0x781 DUP6 DUP3 DUP7 ADD PUSH2 0x6DA JUMP JUMPDEST SWAP3 POP POP PUSH1 0x20 PUSH2 0x792 DUP6 DUP3 DUP7 ADD PUSH2 0x72B JUMP JUMPDEST SWAP2 POP POP SWAP3 POP SWAP3 SWAP1 POP JUMP JUMPDEST PUSH1 0x0 DUP2 SWAP1 POP SWAP2 SWAP1 POP JUMP JUMPDEST PUSH2 0x7AF DUP2 PUSH2 0x79C JUMP JUMPDEST DUP2 EQ PUSH2 0x7BA JUMPI PUSH1 0x0 DUP1 REVERT JUMPDEST POP JUMP JUMPDEST PUSH1 0x0 DUP2 CALLDATALOAD SWAP1 POP PUSH2 0x7CC DUP2 PUSH2 0x7A6 JUMP JUMPDEST SWAP3 SWAP2 POP POP JUMP JUMPDEST PUSH1 0x0 PUSH1 0x20 DUP3 DUP5 SUB SLT ISZERO PUSH2 0x7E8 JUMPI PUSH2 0x7E7 PUSH2 0x5B8 JUMP JUMPDEST JUMPDEST PUSH1 0x0 PUSH2 0x7F6 DUP5 DUP3 DUP6 ADD PUSH2 0x7BD JUMP JUMPDEST SWAP2 POP POP SWAP3 SWAP2 POP POP JUMP JUMPDEST PUSH1 0x0 DUP2 MLOAD SWAP1 POP SWAP2 SWAP1 POP JUMP JUMPDEST PUSH1 0x0 DUP3 DUP3 MSTORE PUSH1 0x20 DUP3 ADD SWAP1 POP SWAP3 SWAP2 POP POP JUMP JUMPDEST PUSH1 0x0 DUP2 SWAP1 POP PUSH1 0x20 DUP3 ADD SWAP1 POP SWAP2 SWAP1 POP JUMP JUMPDEST PUSH2 0x834 DUP2 PUSH2 0x79C JUMP JUMPDEST DUP3 MSTORE POP POP JUMP JUMPDEST PUSH1 0x0 DUP2 MLOAD SWAP1 POP SWAP2 SWAP1 POP JUMP JUMPDEST PUSH1 0x0 DUP3 DUP3 MSTORE PUSH1 0x20 DUP3 ADD SWAP1 POP SWAP3 SWAP2 POP POP JUMP JUMPDEST PUSH1 0x0 JUMPDEST DUP4 DUP2 LT ISZERO PUSH2 0x874 JUMPI DUP1 DUP3 ADD MLOAD DUP2 DUP5 ADD MSTORE PUSH1 0x20 DUP2 ADD SWAP1 POP PUSH2 0x859 JUMP JUMPDEST PUSH1 0x0 DUP5 DUP5 ADD MSTORE POP POP POP POP JUMP JUMPDEST PUSH1 0x0 PUSH2 0x88B DUP3 PUSH2 0x83A JUMP JUMPDEST PUSH2 0x895 DUP2 DUP6 PUSH2 0x845 JUMP JUMPDEST SWAP4 POP PUSH2 0x8A5 DUP2 DUP6 PUSH1 0x20 DUP7 ADD PUSH2 0x856 JUMP JUMPDEST PUSH2 0x8AE DUP2 PUSH2 0x5CC JUMP JUMPDEST DUP5 ADD SWAP2 POP POP SWAP3 SWAP2 POP POP JUMP JUMPDEST PUSH2 0x8C2 DUP2 PUSH2 0x708 JUMP JUMPDEST DUP3 MSTORE POP POP JUMP JUMPDEST PUSH1 0x0 PUSH1 0x60 DUP4 ADD PUSH1 0x0 DUP4 ADD MLOAD PUSH2 0x8E0 PUSH1 0x0 DUP7 ADD DUP3 PUSH2 0x82B JUMP JUMPDEST POP PUSH1 0x20 DUP4 ADD MLOAD DUP5 DUP3 SUB PUSH1 0x20 DUP7 ADD MSTORE PUSH2 0x8F8 DUP3 DUP3 PUSH2 0x880 JUMP JUMPDEST SWAP2 POP POP PUSH1 0x40 DUP4 ADD MLOAD PUSH2 0x90D PUSH1 0x40 DUP7 ADD DUP3 PUSH2 0x8B9 JUMP JUMPDEST POP DUP1 SWAP2 POP POP SWAP3 SWAP2 POP POP JUMP JUMPDEST PUSH1 0x0 PUSH2 0x924 DUP4 DUP4 PUSH2 0x8C8 JUMP JUMPDEST SWAP1 POP SWAP3 SWAP2 POP POP JUMP JUMPDEST PUSH1 0x0 PUSH1 0x20 DUP3 ADD SWAP1 POP SWAP2 SWAP1 POP JUMP JUMPDEST PUSH1 0x0 PUSH2 0x944 DUP3 PUSH2 0x7FF JUMP JUMPDEST PUSH2 0x94E DUP2 DUP6 PUSH2 0x80A JUMP JUMPDEST SWAP4 POP DUP4 PUSH1 0x20 DUP3 MUL DUP6 ADD PUSH2 0x960 DUP6 PUSH2 0x81B JUMP JUMPDEST DUP1 PUSH1 0x0 JUMPDEST DUP6 DUP2 LT ISZERO PUSH2 0x99C JUMPI DUP5 DUP5 SUB DUP10 MSTORE DUP2 MLOAD PUSH2 0x97D DUP6 DUP3 PUSH2 0x918 JUMP JUMPDEST SWAP5 POP PUSH2 0x988 DUP4 PUSH2 0x92C JUMP JUMPDEST SWAP3 POP PUSH1 0x20 DUP11 ADD SWAP10 POP POP PUSH1 0x1 DUP2 ADD SWAP1 POP PUSH2 0x964 JUMP JUMPDEST POP DUP3 SWAP8 POP DUP8 SWAP6 POP POP POP POP POP POP SWAP3 SWAP2 POP POP JUMP JUMPDEST PUSH1 0x0 PUSH1 0x20 DUP3 ADD SWAP1 POP DUP2 DUP2 SUB PUSH1 0x0 DUP4 ADD MSTORE PUSH2 0x9C8 DUP2 DUP5 PUSH2 0x939 JUMP JUMPDEST SWAP1 POP SWAP3 SWAP2 POP POP JUMP JUMPDEST PUSH32 0x4E487B7100000000000000000000000000000000000000000000000000000000 PUSH1 0x0 MSTORE PUSH1 0x22 PUSH1 0x4 MSTORE PUSH1 0x24 PUSH1 0x0 REVERT JUMPDEST PUSH1 0x0 PUSH1 0x2 DUP3 DIV SWAP1 POP PUSH1 0x1 DUP3 AND DUP1 PUSH2 0xA17 JUMPI PUSH1 0x7F DUP3 AND SWAP2 POP JUMPDEST PUSH1 0x20 DUP3 LT DUP2 SUB PUSH2 0xA2A JUMPI PUSH2 0xA29 PUSH2 0x9D0 JUMP JUMPDEST JUMPDEST POP SWAP2 SWAP1 POP JUMP JUMPDEST PUSH1 0x0 DUP2 SWAP1 POP DUP2 PUSH1 0x0 MSTORE PUSH1 0x20 PUSH1 0x0 KECCAK256 SWAP1 POP SWAP2 SWAP1 POP JUMP JUMPDEST PUSH1 0x0 PUSH1 0x20 PUSH1 0x1F DUP4 ADD DIV SWAP1 POP SWAP2 SWAP1 POP JUMP JUMPDEST PUSH1 0x0 DUP3 DUP3 SHL SWAP1 POP SWAP3 SWAP2 POP POP JUMP JUMPDEST PUSH1 0x0 PUSH1 0x8 DUP4 MUL PUSH2 0xA92 PUSH32 0xFFFFFFFFFFFFFFFFFFFFFFFFFFFFFFFFFFFFFFFFFFFFFFFFFFFFFFFFFFFFFFFF DUP3 PUSH2 0xA55 JUMP JUMPDEST PUSH2 0xA9C DUP7 DUP4 PUSH2 0xA55 JUMP JUMPDEST SWAP6 POP DUP1 NOT DUP5 AND SWAP4 POP DUP1 DUP7 AND DUP5 OR SWAP3 POP POP POP SWAP4 SWAP3 POP POP POP JUMP JUMPDEST PUSH1 0x0 DUP2 SWAP1 POP SWAP2 SWAP1 POP JUMP JUMPDEST PUSH1 0x0 PUSH2 0xAD9 PUSH2 0xAD4 PUSH2 0xACF DUP5 PUSH2 0x79C JUMP JUMPDEST PUSH2 0xAB4 JUMP JUMPDEST PUSH2 0x79C JUMP JUMPDEST SWAP1 POP SWAP2 SWAP1 POP JUMP JUMPDEST PUSH1 0x0 DUP2 SWAP1 POP SWAP2 SWAP1 POP JUMP JUMPDEST PUSH2 0xAF3 DUP4 PUSH2 0xABE JUMP JUMPDEST PUSH2 0xB07 PUSH2 0xAFF DUP3 PUSH2 0xAE0 JUMP JUMPDEST DUP5 DUP5 SLOAD PUSH2 0xA62 JUMP JUMPDEST DUP3 SSTORE POP POP POP POP JUMP JUMPDEST PUSH1 0x0 SWAP1 JUMP JUMPDEST PUSH2 0xB1C PUSH2 0xB0F JUMP JUMPDEST PUSH2 0xB27 DUP2 DUP5 DUP5 PUSH2 0xAEA JUMP JUMPDEST POP POP POP JUMP JUMPDEST JUMPDEST DUP2 DUP2 LT ISZERO PUSH2 0xB4B JUMPI PUSH2 0xB40 PUSH1 0x0 DUP3 PUSH2 0xB14 JUMP JUMPDEST PUSH1 0x1 DUP2 ADD SWAP1 POP PUSH2 0xB2D JUMP JUMPDEST POP POP JUMP JUMPDEST PUSH1 0x1F DUP3 GT ISZERO PUSH2 0xB90 JUMPI PUSH2 0xB61 DUP2 PUSH2 0xA30 JUMP JUMPDEST PUSH2 0xB6A DUP5 PUSH2 0xA45 JUMP JUMPDEST DUP2 ADD PUSH1 0x20 DUP6 LT ISZERO PUSH2 0xB79 JUMPI DUP2 SWAP1 POP JUMPDEST PUSH2 0xB8D PUSH2 0xB85 DUP6 PUSH2 0xA45 JUMP JUMPDEST DUP4 ADD DUP3 PUSH2 0xB2C JUMP JUMPDEST POP POP JUMPDEST POP POP POP JUMP JUMPDEST PUSH1 0x0 DUP3 DUP3 SHR SWAP1 POP SWAP3 SWAP2 POP POP JUMP JUMPDEST PUSH1 0x0 PUSH2 0xBB3 PUSH1 0x0 NOT DUP5 PUSH1 0x8 MUL PUSH2 0xB95 JUMP JUMPDEST NOT DUP1 DUP4 AND SWAP2 POP POP SWAP3 SWAP2 POP POP JUMP JUMPDEST PUSH1 0x0 PUSH2 0xBCC DUP4 DUP4 PUSH2 0xBA2 JUMP JUMPDEST SWAP2 POP DUP3 PUSH1 0x2 MUL DUP3 OR SWAP1 POP SWAP3 SWAP2 POP POP JUMP JUMPDEST PUSH2 0xBE5 DUP3 PUSH2 0x83A JUMP JUMPDEST PUSH8 0xFFFFFFFFFFFFFFFF DUP2 GT ISZERO PUSH2 0xBFE JUMPI PUSH2 0xBFD PUSH2 0x5DD JUMP JUMPDEST JUMPDEST PUSH2 0xC08 DUP3 SLOAD PUSH2 0x9FF JUMP JUMPDEST PUSH2 0xC13 DUP3 DUP3 DUP6 PUSH2 0xB4F JUMP JUMPDEST PUSH1 0x0 PUSH1 0x20 SWAP1 POP PUSH1 0x1F DUP4 GT PUSH1 0x1 DUP2 EQ PUSH2 0xC46 JUMPI PUSH1 0x0 DUP5 ISZERO PUSH2 0xC34 JUMPI DUP3 DUP8 ADD MLOAD SWAP1 POP JUMPDEST PUSH2 0xC3E DUP6 DUP3 PUSH2 0xBC0 JUMP JUMPDEST DUP7 SSTORE POP PUSH2 0xCA6 JUMP JUMPDEST PUSH1 0x1F NOT DUP5 AND PUSH2 0xC54 DUP7 PUSH2 0xA30 JUMP JUMPDEST PUSH1 0x0 JUMPDEST DUP3 DUP2 LT ISZERO PUSH2 0xC7C JUMPI DUP5 DUP10 ADD MLOAD DUP3 SSTORE PUSH1 0x1 DUP3 ADD SWAP2 POP PUSH1 0x20 DUP6 ADD SWAP5 POP PUSH1 0x20 DUP2 ADD SWAP1 POP PUSH2 0xC57 JUMP JUMPDEST DUP7 DUP4 LT ISZERO PUSH2 0xC99 JUMPI DUP5 DUP10 ADD MLOAD PUSH2 0xC95 PUSH1 0x1F DUP10 AND DUP3 PUSH2 0xBA2 JUMP JUMPDEST DUP4 SSTORE POP JUMPDEST PUSH1 0x1 PUSH1 0x2 DUP9 MUL ADD DUP9 SSTORE POP POP POP JUMPDEST POP POP POP POP POP POP JUMP JUMPDEST PUSH1 0x0 PUSH20 0xFFFFFFFFFFFFFFFFFFFFFFFFFFFFFFFFFFFFFFFF DUP3 AND SWAP1 POP SWAP2 SWAP1 POP JUMP JUMPDEST PUSH1 0x0 PUSH2 0xCD9 DUP3 PUSH2 0xCAE JUMP JUMPDEST SWAP1 POP SWAP2 SWAP1 POP JUMP JUMPDEST PUSH2 0xCE9 DUP2 PUSH2 0xCCE JUMP JUMPDEST DUP3 MSTORE POP POP JUMP JUMPDEST PUSH2 0xCF8 DUP2 PUSH2 0x79C JUMP JUMPDEST DUP3 MSTORE POP POP JUMP JUMPDEST PUSH1 0x0 PUSH1 0x40 DUP3 ADD SWAP1 POP PUSH2 0xD13 PUSH1 0x0 DUP4 ADD DUP6 PUSH2 0xCE0 JUMP JUMPDEST PUSH2 0xD20 PUSH1 0x20 DUP4 ADD DUP5 PUSH2 0xCEF JUMP JUMPDEST SWAP4 SWAP3 POP POP POP JUMP JUMPDEST PUSH32 0x4E487B7100000000000000000000000000000000000000000000000000000000 PUSH1 0x0 MSTORE PUSH1 0x32 PUSH1 0x4 MSTORE PUSH1 0x24 PUSH1 0x0 REVERT JUMPDEST PUSH2 0xD5F DUP2 PUSH2 0x708 JUMP JUMPDEST DUP3 MSTORE POP POP JUMP JUMPDEST PUSH1 0x0 PUSH1 0x40 DUP3 ADD SWAP1 POP PUSH2 0xD7A PUSH1 0x0 DUP4 ADD DUP6 PUSH2 0xCEF JUMP JUMPDEST PUSH2 0xD87 PUSH1 0x20 DUP4 ADD DUP5 PUSH2 0xD56 JUMP JUMPDEST SWAP4 SWAP3 POP POP POP JUMP JUMPDEST PUSH32 0x4E487B7100000000000000000000000000000000000000000000000000000000 PUSH1 0x0 MSTORE PUSH1 0x11 PUSH1 0x4 MSTORE PUSH1 0x24 PUSH1 0x0 REVERT JUMPDEST PUSH1 0x0 PUSH2 0xDC8 DUP3 PUSH2 0x79C JUMP JUMPDEST SWAP2 POP PUSH32 0xFFFFFFFFFFFFFFFFFFFFFFFFFFFFFFFFFFFFFFFFFFFFFFFFFFFFFFFFFFFFFFFF DUP3 SUB PUSH2 0xDFA JUMPI PUSH2 0xDF9 PUSH2 0xD8E JUMP JUMPDEST JUMPDEST PUSH1 0x1 DUP3 ADD SWAP1 POP SWAP2 SWAP1 POP JUMP INVALID LOG2 PUSH5 0x6970667358 0x22 SLT KECCAK256 PREVRANDAO LT 0xF6 SGT 0x4F 0x2C 0xA5 0xBB SAR 0xA6 0xC0 0xF ISZERO GT NOT DUP14 CREATE BYTE 0xB8 INVALID ISZERO PUSH3 0xA10B6E PUSH4 0xD20AB0F2 PUSH14 0x4664736F6C634300081C00330000 "
        },
        "methodIdentifiers": {
          "addTask(string,bool)": "20df4581",
          "deleteTask(uint256)": "560f3192",
          "getMyTask()": "e08e86b8"
        }
      }
    }
  }
}